{
  "_format": "hh-sol-artifact-1",
  "contractName": "UBridge",
  "sourceName": "contracts/UBridge.sol",
  "abi": [
    {
      "anonymous": false,
      "inputs": [
        {
          "indexed": false,
          "internalType": "uint256",
          "name": "newChainId",
          "type": "uint256"
        }
      ],
      "name": "ChainIdAdded",
      "type": "event"
    },
    {
      "anonymous": false,
      "inputs": [
        {
          "indexed": false,
          "internalType": "uint256",
          "name": "newChainId",
          "type": "uint256"
        },
        {
          "indexed": false,
          "internalType": "uint256",
          "name": "fees",
          "type": "uint256"
        }
      ],
      "name": "ChainIdFeeUpdated",
      "type": "event"
    },
    {
      "anonymous": false,
      "inputs": [
        {
          "indexed": false,
          "internalType": "uint256",
          "name": "newChainId",
          "type": "uint256"
        }
      ],
      "name": "ChainIdRemoved",
      "type": "event"
    },
    {
      "anonymous": false,
      "inputs": [
        {
          "indexed": false,
          "internalType": "address",
          "name": "withdrawalAddress",
          "type": "address"
        },
        {
          "indexed": false,
          "internalType": "address",
          "name": "originTokenAddress",
          "type": "address"
        },
        {
          "indexed": false,
          "internalType": "address",
          "name": "destinationTokenAddress",
          "type": "address"
        },
        {
          "indexed": false,
          "internalType": "uint256",
          "name": "amount",
          "type": "uint256"
        },
        {
          "indexed": true,
          "internalType": "uint256",
          "name": "originChainId",
          "type": "uint256"
        },
        {
          "indexed": false,
          "internalType": "uint256",
          "name": "targetChainId",
          "type": "uint256"
        },
        {
          "indexed": true,
          "internalType": "uint256",
          "name": "count",
          "type": "uint256"
        }
      ],
      "name": "Deposit",
      "type": "event"
    },
    {
      "anonymous": false,
      "inputs": [
        {
          "indexed": false,
          "internalType": "bool",
          "name": "isPaused",
          "type": "bool"
        }
      ],
      "name": "DepositStatusUpdated",
      "type": "event"
    },
    {
      "anonymous": false,
      "inputs": [
        {
          "indexed": true,
          "internalType": "address",
          "name": "previousOwner",
          "type": "address"
        },
        {
          "indexed": true,
          "internalType": "address",
          "name": "newOwner",
          "type": "address"
        }
      ],
      "name": "OwnershipTransferred",
      "type": "event"
    },
    {
      "anonymous": false,
      "inputs": [
        {
          "indexed": false,
          "internalType": "address",
          "name": "account",
          "type": "address"
        }
      ],
      "name": "Paused",
      "type": "event"
    },
    {
      "anonymous": false,
      "inputs": [
        {
          "indexed": false,
          "internalType": "address",
          "name": "tokenAddress",
          "type": "address"
        },
        {
          "indexed": false,
          "internalType": "uint256",
          "name": "chainIdsTarget",
          "type": "uint256"
        }
      ],
      "name": "TokenAdded",
      "type": "event"
    },
    {
      "anonymous": false,
      "inputs": [
        {
          "indexed": false,
          "internalType": "address",
          "name": "tokenAddress",
          "type": "address"
        },
        {
          "indexed": false,
          "internalType": "uint256",
          "name": "chainIdsTarget",
          "type": "uint256"
        }
      ],
      "name": "TokenRemove",
      "type": "event"
    },
    {
      "anonymous": false,
      "inputs": [
        {
          "indexed": false,
          "internalType": "address",
          "name": "account",
          "type": "address"
        }
      ],
      "name": "Unpaused",
      "type": "event"
    },
    {
      "anonymous": false,
      "inputs": [
        {
          "indexed": false,
          "internalType": "address",
          "name": "newVerifier",
          "type": "address"
        }
      ],
      "name": "VerifyAddressAdded",
      "type": "event"
    },
    {
      "anonymous": false,
      "inputs": [
        {
          "indexed": false,
          "internalType": "address",
          "name": "oldVerifier",
          "type": "address"
        }
      ],
      "name": "VerifyAddressRemoved",
      "type": "event"
    },
    {
      "anonymous": false,
      "inputs": [
        {
          "indexed": false,
          "internalType": "address",
          "name": "withdrawalAddress",
          "type": "address"
        },
        {
          "indexed": false,
          "internalType": "address",
          "name": "originTokenAddress",
          "type": "address"
        },
        {
          "indexed": false,
          "internalType": "address",
          "name": "destinationTokenAddress",
          "type": "address"
        },
        {
          "indexed": false,
          "internalType": "uint256",
          "name": "amount",
          "type": "uint256"
        },
        {
          "indexed": true,
          "internalType": "uint256",
          "name": "originChainId",
          "type": "uint256"
        },
        {
          "indexed": false,
          "internalType": "uint256",
          "name": "targetChainId",
          "type": "uint256"
        },
        {
          "indexed": true,
          "internalType": "uint256",
          "name": "count",
          "type": "uint256"
        }
      ],
      "name": "Withdraw",
      "type": "event"
    },
    {
      "inputs": [
        {
          "internalType": "uint256[]",
          "name": "newChainId",
          "type": "uint256[]"
        }
      ],
      "name": "addChainId",
      "outputs": [],
      "stateMutability": "nonpayable",
      "type": "function"
    },
    {
      "inputs": [
        {
          "internalType": "address",
          "name": "originTokenAddress",
          "type": "address"
        },
        {
          "internalType": "address[]",
          "name": "destinationTokenAddresses",
          "type": "address[]"
        },
        {
          "internalType": "uint256[]",
          "name": "chainIdsTarget",
          "type": "uint256[]"
        }
      ],
      "name": "addToken",
      "outputs": [],
      "stateMutability": "nonpayable",
      "type": "function"
    },
    {
      "inputs": [
        {
          "internalType": "address",
          "name": "newVerifier",
          "type": "address"
        }
      ],
      "name": "addVerifyAddress",
      "outputs": [],
      "stateMutability": "nonpayable",
      "type": "function"
    },
    {
      "inputs": [],
      "name": "chainId",
      "outputs": [
        {
          "internalType": "uint256",
          "name": "",
          "type": "uint256"
        }
      ],
      "stateMutability": "view",
      "type": "function"
    },
    {
      "inputs": [
        {
          "internalType": "uint256",
          "name": "",
          "type": "uint256"
        }
      ],
      "name": "chainIdFees",
      "outputs": [
        {
          "internalType": "uint256",
          "name": "",
          "type": "uint256"
        }
      ],
      "stateMutability": "view",
      "type": "function"
    },
    {
      "inputs": [
        {
          "internalType": "uint256",
          "name": "",
          "type": "uint256"
        }
      ],
      "name": "chainIdSupported",
      "outputs": [
        {
          "internalType": "bool",
          "name": "",
          "type": "bool"
        }
      ],
      "stateMutability": "view",
      "type": "function"
    },
    {
      "inputs": [
        {
          "internalType": "address",
          "name": "",
          "type": "address"
        }
      ],
      "name": "chainsSupportedForTokenAddress",
      "outputs": [
        {
          "internalType": "uint256",
          "name": "",
          "type": "uint256"
        }
      ],
      "stateMutability": "view",
      "type": "function"
    },
    {
      "inputs": [
        {
          "internalType": "bool",
          "name": "isPaused",
          "type": "bool"
        }
      ],
      "name": "changeDepositsState",
      "outputs": [],
      "stateMutability": "nonpayable",
      "type": "function"
    },
    {
      "inputs": [],
      "name": "claimFees",
      "outputs": [],
      "stateMutability": "nonpayable",
      "type": "function"
    },
    {
      "inputs": [],
      "name": "count",
      "outputs": [
        {
          "internalType": "uint256",
          "name": "",
          "type": "uint256"
        }
      ],
      "stateMutability": "view",
      "type": "function"
    },
    {
      "inputs": [
        {
          "internalType": "address",
          "name": "withdrawalAddress",
          "type": "address"
        },
        {
          "internalType": "address",
          "name": "originTokenAddress",
          "type": "address"
        },
        {
          "internalType": "uint256",
          "name": "amount",
          "type": "uint256"
        },
        {
          "internalType": "uint256",
          "name": "targetChainId",
          "type": "uint256"
        }
      ],
      "name": "deposit",
      "outputs": [],
      "stateMutability": "payable",
      "type": "function"
    },
    {
      "inputs": [
        {
          "internalType": "bytes",
          "name": "",
          "type": "bytes"
        }
      ],
      "name": "filledSwaps",
      "outputs": [
        {
          "internalType": "bool",
          "name": "",
          "type": "bool"
        }
      ],
      "stateMutability": "view",
      "type": "function"
    },
    {
      "inputs": [],
      "name": "getChainIds",
      "outputs": [
        {
          "internalType": "uint256[]",
          "name": "",
          "type": "uint256[]"
        }
      ],
      "stateMutability": "view",
      "type": "function"
    },
    {
      "inputs": [],
      "name": "getOriginAddresses",
      "outputs": [
        {
          "internalType": "address[]",
          "name": "",
          "type": "address[]"
        }
      ],
      "stateMutability": "view",
      "type": "function"
    },
    {
      "inputs": [],
      "name": "getVerifyAddresses",
      "outputs": [
        {
          "internalType": "address[]",
          "name": "",
          "type": "address[]"
        }
      ],
      "stateMutability": "view",
      "type": "function"
    },
    {
      "inputs": [
        {
          "internalType": "address[]",
          "name": "_verifyAddresses",
          "type": "address[]"
        },
        {
          "internalType": "uint256",
          "name": "_chainId",
          "type": "uint256"
        }
      ],
      "name": "init",
      "outputs": [],
      "stateMutability": "nonpayable",
      "type": "function"
    },
    {
      "inputs": [],
      "name": "owner",
      "outputs": [
        {
          "internalType": "address",
          "name": "",
          "type": "address"
        }
      ],
      "stateMutability": "view",
      "type": "function"
    },
    {
      "inputs": [],
      "name": "pause",
      "outputs": [],
      "stateMutability": "nonpayable",
      "type": "function"
    },
    {
      "inputs": [],
      "name": "paused",
      "outputs": [
        {
          "internalType": "bool",
          "name": "",
          "type": "bool"
        }
      ],
      "stateMutability": "view",
      "type": "function"
    },
    {
      "inputs": [],
      "name": "pausedDeposits",
      "outputs": [
        {
          "internalType": "bool",
          "name": "",
          "type": "bool"
        }
      ],
      "stateMutability": "view",
      "type": "function"
    },
    {
      "inputs": [
        {
          "internalType": "uint256",
          "name": "_chainId",
          "type": "uint256"
        }
      ],
      "name": "removeChainId",
      "outputs": [],
      "stateMutability": "nonpayable",
      "type": "function"
    },
    {
      "inputs": [
        {
          "internalType": "address",
          "name": "tokenAddress",
          "type": "address"
        },
        {
          "internalType": "uint256[]",
          "name": "chainIdsTarget",
          "type": "uint256[]"
        }
      ],
      "name": "removeToken",
      "outputs": [],
      "stateMutability": "nonpayable",
      "type": "function"
    },
    {
      "inputs": [
        {
          "internalType": "address",
          "name": "oldVerifier",
          "type": "address"
        }
      ],
      "name": "removeVerifyAddress",
      "outputs": [],
      "stateMutability": "nonpayable",
      "type": "function"
    },
    {
      "inputs": [],
      "name": "renounceOwnership",
      "outputs": [],
      "stateMutability": "nonpayable",
      "type": "function"
    },
    {
      "inputs": [
        {
          "internalType": "uint256[]",
          "name": "_chainIds",
          "type": "uint256[]"
        },
        {
          "internalType": "uint256[]",
          "name": "fees",
          "type": "uint256[]"
        }
      ],
      "name": "setChainIdFee",
      "outputs": [],
      "stateMutability": "nonpayable",
      "type": "function"
    },
    {
      "inputs": [
        {
          "internalType": "address",
          "name": "",
          "type": "address"
        },
        {
          "internalType": "uint256",
          "name": "",
          "type": "uint256"
        }
      ],
      "name": "tokensSupported",
      "outputs": [
        {
          "internalType": "address",
          "name": "",
          "type": "address"
        }
      ],
      "stateMutability": "view",
      "type": "function"
    },
    {
      "inputs": [
        {
          "internalType": "address",
          "name": "newOwner",
          "type": "address"
        }
      ],
      "name": "transferOwnership",
      "outputs": [],
      "stateMutability": "nonpayable",
      "type": "function"
    },
    {
      "inputs": [],
      "name": "unpause",
      "outputs": [],
      "stateMutability": "nonpayable",
      "type": "function"
    },
    {
      "inputs": [
        {
          "internalType": "address",
          "name": "withdrawalAddress",
          "type": "address"
        },
        {
          "internalType": "address",
          "name": "originTokenAddress",
          "type": "address"
        },
        {
          "internalType": "address",
          "name": "destinationTokenAddress",
          "type": "address"
        },
        {
          "internalType": "uint256",
          "name": "amount",
          "type": "uint256"
        },
        {
          "internalType": "uint256",
          "name": "originChainId",
          "type": "uint256"
        },
        {
          "internalType": "uint256",
          "name": "targetChainId",
          "type": "uint256"
        },
        {
          "internalType": "uint256",
          "name": "_count",
          "type": "uint256"
        },
        {
          "internalType": "bytes[]",
          "name": "signatures",
          "type": "bytes[]"
        }
      ],
      "name": "withdraw",
      "outputs": [],
      "stateMutability": "nonpayable",
      "type": "function"
    },
    {
      "inputs": [
        {
          "components": [
            {
              "internalType": "address",
              "name": "withdrawalAddress",
              "type": "address"
            },
            {
              "internalType": "address",
              "name": "originTokenAddress",
              "type": "address"
            },
            {
              "internalType": "address",
              "name": "destinationTokenAddress",
              "type": "address"
            },
            {
              "internalType": "uint256",
              "name": "amount",
              "type": "uint256"
            },
            {
              "internalType": "uint256",
              "name": "originChainId",
              "type": "uint256"
            },
            {
              "internalType": "uint256",
              "name": "targetChainId",
              "type": "uint256"
            },
            {
              "internalType": "uint256",
              "name": "_count",
              "type": "uint256"
            },
            {
              "internalType": "bytes[]",
              "name": "signatures",
              "type": "bytes[]"
            }
          ],
          "internalType": "struct UBridge.WithdrawalParams[]",
          "name": "withdrawals",
          "type": "tuple[]"
        }
      ],
      "name": "withdrawBatch",
      "outputs": [],
      "stateMutability": "nonpayable",
      "type": "function"
    }
  ],
  "bytecode": "0x6080604052600067ffffffffffffffff81111562000046577f4e487b7100000000000000000000000000000000000000000000000000000000600052604160045260246000fd5b604051908082528060200260200182016040528015620000755781602001602082028036833780820191505090505b50600890805190602001906200008d92919062000239565b50600067ffffffffffffffff811115620000d0577f4e487b7100000000000000000000000000000000000000000000000000000000600052604160045260246000fd5b604051908082528060200260200182016040528015620000ff5781602001602082028036833780820191505090505b5060099080519060200190620001179291906200028b565b503480156200012557600080fd5b50620001466200013a6200016d60201b60201c565b6200017560201b60201c565b60008060146101000a81548160ff0219169083151502179055506001808190555062000339565b600033905090565b60008060009054906101000a900473ffffffffffffffffffffffffffffffffffffffff169050816000806101000a81548173ffffffffffffffffffffffffffffffffffffffff021916908373ffffffffffffffffffffffffffffffffffffffff1602179055508173ffffffffffffffffffffffffffffffffffffffff168173ffffffffffffffffffffffffffffffffffffffff167f8be0079c531659141344cd1fd0a4f28419497f9722a3daafe3b4186f6b6457e060405160405180910390a35050565b82805482825590600052602060002090810192821562000278579160200282015b82811115620002775782518255916020019190600101906200025a565b5b5090506200028791906200031a565b5090565b82805482825590600052602060002090810192821562000307579160200282015b82811115620003065782518260006101000a81548173ffffffffffffffffffffffffffffffffffffffff021916908373ffffffffffffffffffffffffffffffffffffffff16021790555091602001919060010190620002ac565b5b5090506200031691906200031a565b5090565b5b80821115620003355760008160009055506001016200031b565b5090565b61589980620003496000396000f3fe6080604052600436106101cd5760003560e01c8063757ce549116100f7578063bdde35cf11610095578063e2e981c711610064578063e2e981c7146105f3578063f2fde38b1461061c578063f53669ce14610645578063f5bb9c6814610682576101cd565b8063bdde35cf1461055f578063c5eeb8af14610588578063cb67e6b4146105b1578063d294f093146105dc576101cd565b80639a8a0592116100d15780639a8a0592146104a5578063a92f360e146104d0578063b08de2c61461050d578063bab47f9714610536576101cd565b8063757ce5491461043a5780638456cb59146104635780638da5cb5b1461047a576101cd565b806320e8c5651161016f57806358b819971161013e57806358b81997146103905780635c975abb146103cd5780636068d6cb146103f8578063715018a614610423576101cd565b806320e8c565146103095780633e1a771d146103255780633f4ba83a1461034e578063492af0a614610365576101cd565b80630e24da3b116101ab5780630e24da3b1461024f5780631a12cb0a146102785780631cdb65e4146102b55780631d776323146102de576101cd565b806302fd4be4146101d257806306661abd146101fb5780630af5839414610226575b600080fd5b3480156101de57600080fd5b506101f960048036038101906101f49190614067565b6106bf565b005b34801561020757600080fd5b5061021061075e565b60405161021d9190614e16565b60405180910390f35b34801561023257600080fd5b5061024d600480360381019061024891906140e9565b610764565b005b34801561025b57600080fd5b5061027660048036038101906102719190613f04565b610923565b005b34801561028457600080fd5b5061029f600480360381019061029a91906141a7565b610da1565b6040516102ac9190614a14565b60405180910390f35b3480156102c157600080fd5b506102dc60048036038101906102d791906140a8565b610dd7565b005b3480156102ea57600080fd5b506102f3611028565b60405161030091906149f2565b60405180910390f35b610323600480360381019061031e9190613ea1565b611080565b005b34801561033157600080fd5b5061034c60048036038101906103479190614013565b61140a565b005b34801561035a57600080fd5b50610363611572565b005b34801561037157600080fd5b5061037a6115f8565b60405161038791906149d0565b60405180910390f35b34801561039c57600080fd5b506103b760048036038101906103b291906141e8565b611686565b6040516103c49190614a14565b60405180910390f35b3480156103d957600080fd5b506103e26116a6565b6040516103ef9190614a14565b60405180910390f35b34801561040457600080fd5b5061040d6116bc565b60405161041a9190614a14565b60405180910390f35b34801561042f57600080fd5b506104386116cf565b005b34801561044657600080fd5b50610461600480360381019061045c9190613dae565b611757565b005b34801561046f57600080fd5b50610478611822565b005b34801561048657600080fd5b5061048f6118a8565b60405161049c9190614902565b60405180910390f35b3480156104b157600080fd5b506104ba6118d1565b6040516104c79190614e16565b60405180910390f35b3480156104dc57600080fd5b506104f760048036038101906104f29190613fd7565b6118d7565b6040516105049190614902565b60405180910390f35b34801561051957600080fd5b50610534600480360381019061052f9190613dae565b611919565b005b34801561054257600080fd5b5061055d60048036038101906105589190614155565b611a54565b005b34801561056b57600080fd5b5061058660048036038101906105819190613f83565b611b24565b005b34801561059457600080fd5b506105af60048036038101906105aa91906141e8565b6121c4565b005b3480156105bd57600080fd5b506105c661248f565b6040516105d391906149d0565b60405180910390f35b3480156105e857600080fd5b506105f16124a0565b005b3480156105ff57600080fd5b5061061a60048036038101906106159190613dd7565b6125b1565b005b34801561062857600080fd5b50610643600480360381019061063e9190613dae565b6128f8565b005b34801561065157600080fd5b5061066c600480360381019061066791906141e8565b6129f0565b6040516106799190614e16565b60405180910390f35b34801561068e57600080fd5b506106a960048036038101906106a49190613dae565b612a08565b6040516106b69190614e16565b60405180910390f35b6106c7613901565b60005b82518110156107595782818151811061070c577f4e487b7100000000000000000000000000000000000000000000000000000000600052603260045260246000fd5b60200260200101519150610746826000015183602001518460400151856060015186608001518760a001518860c001518960e001516125b1565b808061075190615195565b9150506106ca565b505050565b60045481565b61076c612a20565b73ffffffffffffffffffffffffffffffffffffffff1661078a6118a8565b73ffffffffffffffffffffffffffffffffffffffff16146107e0576040517f08c379a00000000000000000000000000000000000000000000000000000000081526004016107d790614c76565b60405180910390fd5b8051825114610824576040517f08c379a000000000000000000000000000000000000000000000000000000000815260040161081b90614cd6565b60405180910390fd5b60005b825181101561091e57600083828151811061086b577f4e487b7100000000000000000000000000000000000000000000000000000000600052603260045260246000fd5b6020026020010151905060008383815181106108b0577f4e487b7100000000000000000000000000000000000000000000000000000000600052603260045260246000fd5b6020026020010151905080600e6000848152602001908152602001600020819055507f97069eb96427503c3de8f5a8930723cf1f35cd780100f54b3de69203d9f76d528282604051610903929190614e31565b60405180910390a150508061091790615195565b9050610827565b505050565b61092b612a20565b73ffffffffffffffffffffffffffffffffffffffff166109496118a8565b73ffffffffffffffffffffffffffffffffffffffff161461099f576040517f08c379a000000000000000000000000000000000000000000000000000000000815260040161099690614c76565b60405180910390fd5b600073ffffffffffffffffffffffffffffffffffffffff168373ffffffffffffffffffffffffffffffffffffffff161415610a0f576040517f08c379a0000000000000000000000000000000000000000000000000000000008152600401610a0690614c56565b60405180910390fd5b8051825114610a53576040517f08c379a0000000000000000000000000000000000000000000000000000000008152600401610a4a90614b56565b60405180910390fd5b6000600d60008573ffffffffffffffffffffffffffffffffffffffff1673ffffffffffffffffffffffffffffffffffffffff168152602001908152602001600020541415610aff576009839080600181540180825580915050600190039060005260206000200160009091909190916101000a81548173ffffffffffffffffffffffffffffffffffffffff021916908373ffffffffffffffffffffffffffffffffffffffff1602179055505b60005b8151811015610d9b57600b6000838381518110610b48577f4e487b7100000000000000000000000000000000000000000000000000000000600052603260045260246000fd5b6020026020010151815260200190815260200160002060009054906101000a900460ff16610bab576040517f08c379a0000000000000000000000000000000000000000000000000000000008152600401610ba290614ab6565b60405180910390fd5b600d60008573ffffffffffffffffffffffffffffffffffffffff1673ffffffffffffffffffffffffffffffffffffffff1681526020019081526020016000206000815480929190610bfb90615195565b9190505550828181518110610c39577f4e487b7100000000000000000000000000000000000000000000000000000000600052603260045260246000fd5b6020026020010151600c60008673ffffffffffffffffffffffffffffffffffffffff1673ffffffffffffffffffffffffffffffffffffffff1681526020019081526020016000206000848481518110610cbb577f4e487b7100000000000000000000000000000000000000000000000000000000600052603260045260246000fd5b6020026020010151815260200190815260200160002060006101000a81548173ffffffffffffffffffffffffffffffffffffffff021916908373ffffffffffffffffffffffffffffffffffffffff1602179055507ff4c563a3ea86ff1f4275e8c207df0375a51963f2b831b7bf4da8be938d92876c84838381518110610d6a577f4e487b7100000000000000000000000000000000000000000000000000000000600052603260045260246000fd5b6020026020010151604051610d809291906149a7565b60405180910390a18080610d9390615195565b915050610b02565b50505050565b600a818051602081018201805184825260208301602085012081835280955050505050506000915054906101000a900460ff1681565b610ddf612a20565b73ffffffffffffffffffffffffffffffffffffffff16610dfd6118a8565b73ffffffffffffffffffffffffffffffffffffffff1614610e53576040517f08c379a0000000000000000000000000000000000000000000000000000000008152600401610e4a90614c76565b60405180910390fd5b60005b815181101561102457600b6000838381518110610e9c577f4e487b7100000000000000000000000000000000000000000000000000000000600052603260045260246000fd5b6020026020010151815260200190815260200160002060009054906101000a900460ff16610f2e576008828281518110610eff577f4e487b7100000000000000000000000000000000000000000000000000000000600052603260045260246000fd5b602002602001015190806001815401808255809150506001900390600052602060002001600090919091909150555b6001600b6000848481518110610f6d577f4e487b7100000000000000000000000000000000000000000000000000000000600052603260045260246000fd5b6020026020010151815260200190815260200160002060006101000a81548160ff0219169083151502179055507f81b76ca0f2f5caf9af258fb0d9955478a105e304a99322dd21ee8f35dcb494a6828281518110610ff4577f4e487b7100000000000000000000000000000000000000000000000000000000600052603260045260246000fd5b60200260200101516040516110099190614e16565b60405180910390a1808061101c90615195565b915050610e56565b5050565b6060600880548060200260200160405190810160405280929190818152602001828054801561107657602002820191906000526020600020905b815481526020019060010190808311611062575b5050505050905090565b600260015414156110c6576040517f08c379a00000000000000000000000000000000000000000000000000000000081526004016110bd90614dd6565b60405180910390fd5b6002600181905550600560009054906101000a900460ff161561111e576040517f08c379a000000000000000000000000000000000000000000000000000000000815260040161111590614d96565b60405180910390fd5b6111266116a6565b15611166576040517f08c379a000000000000000000000000000000000000000000000000000000000815260040161115d90614bd6565b60405180910390fd5b600e60008281526020019081526020016000205434146111bb576040517f08c379a00000000000000000000000000000000000000000000000000000000081526004016111b290614c16565b60405180910390fd5b600073ffffffffffffffffffffffffffffffffffffffff168473ffffffffffffffffffffffffffffffffffffffff16141561122b576040517f08c379a000000000000000000000000000000000000000000000000000000000815260040161122290614c96565b60405180910390fd5b600b600082815260200190815260200160002060009054906101000a900460ff1661128b576040517f08c379a000000000000000000000000000000000000000000000000000000000815260040161128290614ab6565b60405180910390fd5b6000600c60008573ffffffffffffffffffffffffffffffffffffffff1673ffffffffffffffffffffffffffffffffffffffff168152602001908152602001600020600083815260200190815260200160002060009054906101000a900473ffffffffffffffffffffffffffffffffffffffff169050600073ffffffffffffffffffffffffffffffffffffffff168173ffffffffffffffffffffffffffffffffffffffff161415611370576040517f08c379a000000000000000000000000000000000000000000000000000000000815260040161136790614df6565b60405180910390fd5b600160046000828254611383919061500f565b925050819055506113b73330858773ffffffffffffffffffffffffffffffffffffffff16612a28909392919063ffffffff16565b6004546003547fee58b7a4a41f919b43841b7643761b258297cdd1aa967230d35bc23caf2b4f5187878588886040516113f495949392919061491d565b60405180910390a3506001808190555050505050565b600260019054906101000a900460ff1661143457600260009054906101000a900460ff161561143d565b61143c612ab1565b5b61147c576040517f08c379a000000000000000000000000000000000000000000000000000000000815260040161147390614bf6565b60405180910390fd5b6000600260019054906101000a900460ff1615905080156114ce576001600260016101000a81548160ff0219169083151502179055506001600260006101000a81548160ff0219169083151502179055505b60005b83518110156115435761152e848281518110611516577f4e487b7100000000000000000000000000000000000000000000000000000000600052603260045260246000fd5b60200260200101516006612ac290919063ffffffff16565b5060018161153c919061500f565b90506114d1565b5081600381905550801561156d576000600260016101000a81548160ff0219169083151502179055505b505050565b61157a612a20565b73ffffffffffffffffffffffffffffffffffffffff166115986118a8565b73ffffffffffffffffffffffffffffffffffffffff16146115ee576040517f08c379a00000000000000000000000000000000000000000000000000000000081526004016115e590614c76565b60405180910390fd5b6115f6612af2565b565b6060600980548060200260200160405190810160405280929190818152602001828054801561167c57602002820191906000526020600020905b8160009054906101000a900473ffffffffffffffffffffffffffffffffffffffff1673ffffffffffffffffffffffffffffffffffffffff1681526020019060010190808311611632575b5050505050905090565b600b6020528060005260406000206000915054906101000a900460ff1681565b60008060149054906101000a900460ff16905090565b600560009054906101000a900460ff1681565b6116d7612a20565b73ffffffffffffffffffffffffffffffffffffffff166116f56118a8565b73ffffffffffffffffffffffffffffffffffffffff161461174b576040517f08c379a000000000000000000000000000000000000000000000000000000000815260040161174290614c76565b60405180910390fd5b6117556000612b93565b565b61175f612a20565b73ffffffffffffffffffffffffffffffffffffffff1661177d6118a8565b73ffffffffffffffffffffffffffffffffffffffff16146117d3576040517f08c379a00000000000000000000000000000000000000000000000000000000081526004016117ca90614c76565b60405180910390fd5b6117e7816006612c5790919063ffffffff16565b507f5064bc1e784351465bfbb3ddeb9a118cd3b5bf8352c907242115beced4f8b5a3816040516118179190614902565b60405180910390a150565b61182a612a20565b73ffffffffffffffffffffffffffffffffffffffff166118486118a8565b73ffffffffffffffffffffffffffffffffffffffff161461189e576040517f08c379a000000000000000000000000000000000000000000000000000000000815260040161189590614c76565b60405180910390fd5b6118a6612c87565b565b60008060009054906101000a900473ffffffffffffffffffffffffffffffffffffffff16905090565b60035481565b600c6020528160005260406000206020528060005260406000206000915091509054906101000a900473ffffffffffffffffffffffffffffffffffffffff1681565b611921612a20565b73ffffffffffffffffffffffffffffffffffffffff1661193f6118a8565b73ffffffffffffffffffffffffffffffffffffffff1614611995576040517f08c379a000000000000000000000000000000000000000000000000000000000815260040161198c90614c76565b60405180910390fd5b600073ffffffffffffffffffffffffffffffffffffffff168173ffffffffffffffffffffffffffffffffffffffff161415611a05576040517f08c379a00000000000000000000000000000000000000000000000000000000081526004016119fc90614c56565b60405180910390fd5b611a19816006612ac290919063ffffffff16565b507fa6997bd4767238d9ae33e7ebe4ef08cd914e64852b0de661d6f33165c603cdba81604051611a499190614902565b60405180910390a150565b611a5c612a20565b73ffffffffffffffffffffffffffffffffffffffff16611a7a6118a8565b73ffffffffffffffffffffffffffffffffffffffff1614611ad0576040517f08c379a0000000000000000000000000000000000000000000000000000000008152600401611ac790614c76565b60405180910390fd5b7fb4a3a98d9b674b7f368b13fefb1008a5925b872027f14a22a788df3bbde0723081604051611aff9190614a14565b60405180910390a180600560006101000a81548160ff02191690831515021790555050565b611b2c612a20565b73ffffffffffffffffffffffffffffffffffffffff16611b4a6118a8565b73ffffffffffffffffffffffffffffffffffffffff1614611ba0576040517f08c379a0000000000000000000000000000000000000000000000000000000008152600401611b9790614c76565b60405180910390fd5b60005b8151811015611f23576000828281518110611be7577f4e487b7100000000000000000000000000000000000000000000000000000000600052603260045260246000fd5b60200260200101519050600b600082815260200190815260200160002060009054906101000a900460ff16611c51576040517f08c379a0000000000000000000000000000000000000000000000000000000008152600401611c4890614ab6565b60405180910390fd5b600073ffffffffffffffffffffffffffffffffffffffff16600c60008673ffffffffffffffffffffffffffffffffffffffff1673ffffffffffffffffffffffffffffffffffffffff1681526020019081526020016000206000858581518110611ce3577f4e487b7100000000000000000000000000000000000000000000000000000000600052603260045260246000fd5b6020026020010151815260200190815260200160002060009054906101000a900473ffffffffffffffffffffffffffffffffffffffff1673ffffffffffffffffffffffffffffffffffffffff161415611d71576040517f08c379a0000000000000000000000000000000000000000000000000000000008152600401611d6890614b16565b60405180910390fd5b6000600c60008673ffffffffffffffffffffffffffffffffffffffff1673ffffffffffffffffffffffffffffffffffffffff1681526020019081526020016000206000858581518110611ded577f4e487b7100000000000000000000000000000000000000000000000000000000600052603260045260246000fd5b6020026020010151815260200190815260200160002060006101000a81548173ffffffffffffffffffffffffffffffffffffffff021916908373ffffffffffffffffffffffffffffffffffffffff160217905550600d60008573ffffffffffffffffffffffffffffffffffffffff1673ffffffffffffffffffffffffffffffffffffffff1681526020019081526020016000206000815480929190611e919061513a565b91905055507fd4761f7c8749809ebc5ed43b97c8259b3786231a1377fbeaf7451e028927440584848481518110611ef1577f4e487b7100000000000000000000000000000000000000000000000000000000600052603260045260246000fd5b6020026020010151604051611f079291906149a7565b60405180910390a1508080611f1b90615195565b915050611ba3565b506000600d60008473ffffffffffffffffffffffffffffffffffffffff1673ffffffffffffffffffffffffffffffffffffffff168152602001908152602001600020541115611f71576121c0565b60005b600980549050811015612031578273ffffffffffffffffffffffffffffffffffffffff1660098281548110611fd2577f4e487b7100000000000000000000000000000000000000000000000000000000600052603260045260246000fd5b9060005260206000200160009054906101000a900473ffffffffffffffffffffffffffffffffffffffff1673ffffffffffffffffffffffffffffffffffffffff16141561201e57612031565b808061202990615195565b915050611f74565b5b60016009805490506120449190615065565b81101561215157600960018261205a919061500f565b81548110612091577f4e487b7100000000000000000000000000000000000000000000000000000000600052603260045260246000fd5b9060005260206000200160009054906101000a900473ffffffffffffffffffffffffffffffffffffffff16600982815481106120f6577f4e487b7100000000000000000000000000000000000000000000000000000000600052603260045260246000fd5b9060005260206000200160006101000a81548173ffffffffffffffffffffffffffffffffffffffff021916908373ffffffffffffffffffffffffffffffffffffffff160217905550808061214990615195565b915050612032565b6009805480612189577f4e487b7100000000000000000000000000000000000000000000000000000000600052603160045260246000fd5b6001900381819060005260206000200160006101000a81549073ffffffffffffffffffffffffffffffffffffffff02191690559055505b5050565b6121cc612a20565b73ffffffffffffffffffffffffffffffffffffffff166121ea6118a8565b73ffffffffffffffffffffffffffffffffffffffff1614612240576040517f08c379a000000000000000000000000000000000000000000000000000000000815260040161223790614c76565b60405180910390fd5b600b600082815260200190815260200160002060009054906101000a900460ff166122a0576040517f08c379a000000000000000000000000000000000000000000000000000000000815260040161229790614ab6565b60405180910390fd5b60005b6008805490508110156123145781600882815481106122eb577f4e487b7100000000000000000000000000000000000000000000000000000000600052603260045260246000fd5b9060005260206000200154141561230157612314565b808061230c90615195565b9150506122a3565b5b60016008805490506123279190615065565b8110156123da57600860018261233d919061500f565b81548110612374577f4e487b7100000000000000000000000000000000000000000000000000000000600052603260045260246000fd5b9060005260206000200154600882815481106123b9577f4e487b7100000000000000000000000000000000000000000000000000000000600052603260045260246000fd5b906000526020600020018190555080806123d290615195565b915050612315565b6008805480612412577f4e487b7100000000000000000000000000000000000000000000000000000000600052603160045260246000fd5b600190038181906000526020600020016000905590556000600b600084815260200190815260200160002060006101000a81548160ff0219169083151502179055507fb75a3f17b7b0d4bf4da6ef5ad5e0244cc5a2c77f8b45856463e397c2612465fb826040516124839190614e16565b60405180910390a15050565b606061249b6006612d2a565b905090565b600260015414156124e6576040517f08c379a00000000000000000000000000000000000000000000000000000000081526004016124dd90614dd6565b60405180910390fd5b6002600181905550600047905060006124fd6118a8565b73ffffffffffffffffffffffffffffffffffffffff1682604051612520906148ed565b60006040518083038185875af1925050503d806000811461255d576040519150601f19603f3d011682016040523d82523d6000602084013e612562565b606091505b50509050806125a6576040517f08c379a000000000000000000000000000000000000000000000000000000000815260040161259d90614b76565b60405180910390fd5b505060018081905550565b600260015414156125f7576040517f08c379a00000000000000000000000000000000000000000000000000000000081526004016125ee90614dd6565b60405180910390fd5b60026001819055506126076116a6565b15612647576040517f08c379a000000000000000000000000000000000000000000000000000000000815260040161263e90614bd6565b60405180910390fd5b60006126536006612d4b565b11612693576040517f08c379a000000000000000000000000000000000000000000000000000000000815260040161268a90614d36565b60405180910390fd5b60035483146126d7576040517f08c379a00000000000000000000000000000000000000000000000000000000081526004016126ce90614d56565b60405180910390fd5b6126e16006612d4b565b815114612723576040517f08c379a000000000000000000000000000000000000000000000000000000000815260040161271a90614cf6565b60405180910390fd5b60005b815181101561287a57600082828151811061276a577f4e487b7100000000000000000000000000000000000000000000000000000000600052603260045260246000fd5b60200260200101519050600a8160405161278491906148b0565b908152602001604051809103902060009054906101000a900460ff16156127e0576040517f08c379a00000000000000000000000000000000000000000000000000000000081526004016127d790614cb6565b60405180910390fd5b6127f08a8a8a8a8a8a8a88612d60565b61282f576040517f08c379a000000000000000000000000000000000000000000000000000000000815260040161282690614db6565b60405180910390fd5b6001600a8260405161284191906148b0565b908152602001604051809103902060006101000a81548160ff02191690831515021790555050808061287290615195565b915050612726565b506128a688868873ffffffffffffffffffffffffffffffffffffffff16612dd29092919063ffffffff16565b81847fd91ccdd5cef3c2bca03dc0bf0b42adf67c0d34121e6476bff161091e0411c11c8a8a8a8a896040516128df95949392919061491d565b60405180910390a3600180819055505050505050505050565b612900612a20565b73ffffffffffffffffffffffffffffffffffffffff1661291e6118a8565b73ffffffffffffffffffffffffffffffffffffffff1614612974576040517f08c379a000000000000000000000000000000000000000000000000000000000815260040161296b90614c76565b60405180910390fd5b600073ffffffffffffffffffffffffffffffffffffffff168173ffffffffffffffffffffffffffffffffffffffff1614156129e4576040517f08c379a00000000000000000000000000000000000000000000000000000000081526004016129db90614b36565b60405180910390fd5b6129ed81612b93565b50565b600e6020528060005260406000206000915090505481565b600d6020528060005260406000206000915090505481565b600033905090565b612aab846323b872dd60e01b858585604051602401612a4993929190614970565b604051602081830303815290604052907bffffffffffffffffffffffffffffffffffffffffffffffffffffffff19166020820180517bffffffffffffffffffffffffffffffffffffffffffffffffffffffff8381831617835250505050612e58565b50505050565b6000612abc30612f1f565b15905090565b6000612aea836000018373ffffffffffffffffffffffffffffffffffffffff1660001b612f32565b905092915050565b612afa6116a6565b612b39576040517f08c379a0000000000000000000000000000000000000000000000000000000008152600401612b3090614ad6565b60405180910390fd5b60008060146101000a81548160ff0219169083151502179055507f5db9ee0a495bf2e6ff9c91a7834c1ba4fdd244a5e8aa4e537bd38aeae4b073aa612b7c612a20565b604051612b899190614902565b60405180910390a1565b60008060009054906101000a900473ffffffffffffffffffffffffffffffffffffffff169050816000806101000a81548173ffffffffffffffffffffffffffffffffffffffff021916908373ffffffffffffffffffffffffffffffffffffffff1602179055508173ffffffffffffffffffffffffffffffffffffffff168173ffffffffffffffffffffffffffffffffffffffff167f8be0079c531659141344cd1fd0a4f28419497f9722a3daafe3b4186f6b6457e060405160405180910390a35050565b6000612c7f836000018373ffffffffffffffffffffffffffffffffffffffff1660001b612fa2565b905092915050565b612c8f6116a6565b15612ccf576040517f08c379a0000000000000000000000000000000000000000000000000000000008152600401612cc690614bd6565b60405180910390fd5b6001600060146101000a81548160ff0219169083151502179055507f62e78cea01bee320cd4e420270b5ea74000d11b0c9f74754ebdbfc544b05a258612d13612a20565b604051612d209190614902565b60405180910390a1565b60606000612d3a83600001613128565b905060608190508092505050919050565b6000612d5982600001613184565b9050919050565b600080612d9e8a8a8a8a8a8a8a604051602001612d83979695949392919061482f565b60405160208183030381529060405280519060200120613195565b90506000612dac82856131c5565b9050612dc28160066131ec90919063ffffffff16565b9250505098975050505050505050565b612e538363a9059cbb60e01b8484604051602401612df19291906149a7565b604051602081830303815290604052907bffffffffffffffffffffffffffffffffffffffffffffffffffffffff19166020820180517bffffffffffffffffffffffffffffffffffffffffffffffffffffffff8381831617835250505050612e58565b505050565b6000612eba826040518060400160405280602081526020017f5361666545524332303a206c6f772d6c6576656c2063616c6c206661696c65648152508573ffffffffffffffffffffffffffffffffffffffff1661321c9092919063ffffffff16565b9050600081511115612f1a5780806020019051810190612eda919061417e565b612f19576040517f08c379a0000000000000000000000000000000000000000000000000000000008152600401612f1090614d76565b60405180910390fd5b5b505050565b600080823b905060008111915050919050565b6000612f3e8383613234565b612f97578260000182908060018154018082558091505060019003906000526020600020016000909190919091505582600001805490508360010160008481526020019081526020016000208190555060019050612f9c565b600090505b92915050565b6000808360010160008481526020019081526020016000205490506000811461311c576000600182612fd49190615065565b9050600060018660000180549050612fec9190615065565b90508181146130a7576000866000018281548110613033577f4e487b7100000000000000000000000000000000000000000000000000000000600052603260045260246000fd5b906000526020600020015490508087600001848154811061307d577f4e487b7100000000000000000000000000000000000000000000000000000000600052603260045260246000fd5b90600052602060002001819055508387600101600083815260200190815260200160002081905550505b856000018054806130e1577f4e487b7100000000000000000000000000000000000000000000000000000000600052603160045260246000fd5b600190038181906000526020600020016000905590558560010160008681526020019081526020016000206000905560019350505050613122565b60009150505b92915050565b60608160000180548060200260200160405190810160405280929190818152602001828054801561317857602002820191906000526020600020905b815481526020019060010190808311613164575b50505050509050919050565b600081600001805490509050919050565b6000816040516020016131a891906148c7565b604051602081830303815290604052805190602001209050919050565b60008060006131d48585613257565b915091506131e1816132da565b819250505092915050565b6000613214836000018373ffffffffffffffffffffffffffffffffffffffff1660001b613234565b905092915050565b606061322b848460008561362b565b90509392505050565b600080836001016000848152602001908152602001600020541415905092915050565b6000806041835114156132995760008060006020860151925060408601519150606086015160001a905061328d8782858561373f565b945094505050506132d3565b6040835114156132ca5760008060208501519150604085015190506132bf86838361384c565b9350935050506132d3565b60006002915091505b9250929050565b60006004811115613314577f4e487b7100000000000000000000000000000000000000000000000000000000600052602160045260246000fd5b81600481111561334d577f4e487b7100000000000000000000000000000000000000000000000000000000600052602160045260246000fd5b141561335857613628565b60016004811115613392577f4e487b7100000000000000000000000000000000000000000000000000000000600052602160045260246000fd5b8160048111156133cb577f4e487b7100000000000000000000000000000000000000000000000000000000600052602160045260246000fd5b141561340c576040517f08c379a000000000000000000000000000000000000000000000000000000000815260040161340390614a96565b60405180910390fd5b60026004811115613446577f4e487b7100000000000000000000000000000000000000000000000000000000600052602160045260246000fd5b81600481111561347f577f4e487b7100000000000000000000000000000000000000000000000000000000600052602160045260246000fd5b14156134c0576040517f08c379a00000000000000000000000000000000000000000000000000000000081526004016134b790614af6565b60405180910390fd5b600360048111156134fa577f4e487b7100000000000000000000000000000000000000000000000000000000600052602160045260246000fd5b816004811115613533577f4e487b7100000000000000000000000000000000000000000000000000000000600052602160045260246000fd5b1415613574576040517f08c379a000000000000000000000000000000000000000000000000000000000815260040161356b90614b96565b60405180910390fd5b6004808111156135ad577f4e487b7100000000000000000000000000000000000000000000000000000000600052602160045260246000fd5b8160048111156135e6577f4e487b7100000000000000000000000000000000000000000000000000000000600052602160045260246000fd5b1415613627576040517f08c379a000000000000000000000000000000000000000000000000000000000815260040161361e90614c36565b60405180910390fd5b5b50565b606082471015613670576040517f08c379a000000000000000000000000000000000000000000000000000000000815260040161366790614bb6565b60405180910390fd5b61367985612f1f565b6136b8576040517f08c379a00000000000000000000000000000000000000000000000000000000081526004016136af90614d16565b60405180910390fd5b6000808673ffffffffffffffffffffffffffffffffffffffff1685876040516136e191906148b0565b60006040518083038185875af1925050503d806000811461371e576040519150601f19603f3d011682016040523d82523d6000602084013e613723565b606091505b509150915061373382828661389a565b92505050949350505050565b6000807f7fffffffffffffffffffffffffffffff5d576e7357a4501ddfe92f46681b20a08360001c111561377a576000600391509150613843565b601b8560ff16141580156137925750601c8560ff1614155b156137a4576000600491509150613843565b6000600187878787604051600081526020016040526040516137c99493929190614a2f565b6020604051602081039080840390855afa1580156137eb573d6000803e3d6000fd5b505050602060405103519050600073ffffffffffffffffffffffffffffffffffffffff168173ffffffffffffffffffffffffffffffffffffffff16141561383a57600060019250925050613843565b80600092509250505b94509492505050565b6000806000807f7fffffffffffffffffffffffffffffffffffffffffffffffffffffffffffffff85169150601b8560ff1c01905061388c8782888561373f565b935093505050935093915050565b606083156138aa578290506138fa565b6000835111156138bd5782518084602001fd5b816040517f08c379a00000000000000000000000000000000000000000000000000000000081526004016138f19190614a74565b60405180910390fd5b9392505050565b604051806101000160405280600073ffffffffffffffffffffffffffffffffffffffff168152602001600073ffffffffffffffffffffffffffffffffffffffff168152602001600073ffffffffffffffffffffffffffffffffffffffff16815260200160008152602001600081526020016000815260200160008152602001606081525090565b600061399b61399684614e7f565b614e5a565b905080838252602082019050828560208602820111156139ba57600080fd5b60005b858110156139ea57816139d08882613baa565b8452602084019350602083019250506001810190506139bd565b5050509392505050565b6000613a07613a0284614eab565b614e5a565b90508083825260208201905082856020860282011115613a2657600080fd5b60005b85811015613a7057813567ffffffffffffffff811115613a4857600080fd5b808601613a558982613c91565b85526020850194506020840193505050600181019050613a29565b5050509392505050565b6000613a8d613a8884614ed7565b614e5a565b90508083825260208201905082856020860282011115613aac57600080fd5b60005b85811015613af657813567ffffffffffffffff811115613ace57600080fd5b808601613adb8982613cbb565b85526020850194506020840193505050600181019050613aaf565b5050509392505050565b6000613b13613b0e84614f03565b614e5a565b90508083825260208201905082856020860282011115613b3257600080fd5b60005b85811015613b625781613b488882613d99565b845260208401935060208301925050600181019050613b35565b5050509392505050565b6000613b7f613b7a84614f2f565b614e5a565b905082815260208101848484011115613b9757600080fd5b613ba28482856150f8565b509392505050565b600081359050613bb98161581e565b92915050565b600082601f830112613bd057600080fd5b8135613be0848260208601613988565b91505092915050565b600082601f830112613bfa57600080fd5b8135613c0a8482602086016139f4565b91505092915050565b600082601f830112613c2457600080fd5b8135613c34848260208601613a7a565b91505092915050565b600082601f830112613c4e57600080fd5b8135613c5e848260208601613b00565b91505092915050565b600081359050613c7681615835565b92915050565b600081519050613c8b81615835565b92915050565b600082601f830112613ca257600080fd5b8135613cb2848260208601613b6c565b91505092915050565b60006101008284031215613cce57600080fd5b613cd9610100614e5a565b90506000613ce984828501613baa565b6000830152506020613cfd84828501613baa565b6020830152506040613d1184828501613baa565b6040830152506060613d2584828501613d99565b6060830152506080613d3984828501613d99565b60808301525060a0613d4d84828501613d99565b60a08301525060c0613d6184828501613d99565b60c08301525060e082013567ffffffffffffffff811115613d8157600080fd5b613d8d84828501613be9565b60e08301525092915050565b600081359050613da88161584c565b92915050565b600060208284031215613dc057600080fd5b6000613dce84828501613baa565b91505092915050565b600080600080600080600080610100898b031215613df457600080fd5b6000613e028b828c01613baa565b9850506020613e138b828c01613baa565b9750506040613e248b828c01613baa565b9650506060613e358b828c01613d99565b9550506080613e468b828c01613d99565b94505060a0613e578b828c01613d99565b93505060c0613e688b828c01613d99565b92505060e089013567ffffffffffffffff811115613e8557600080fd5b613e918b828c01613be9565b9150509295985092959890939650565b60008060008060808587031215613eb757600080fd5b6000613ec587828801613baa565b9450506020613ed687828801613baa565b9350506040613ee787828801613d99565b9250506060613ef887828801613d99565b91505092959194509250565b600080600060608486031215613f1957600080fd5b6000613f2786828701613baa565b935050602084013567ffffffffffffffff811115613f4457600080fd5b613f5086828701613bbf565b925050604084013567ffffffffffffffff811115613f6d57600080fd5b613f7986828701613c3d565b9150509250925092565b60008060408385031215613f9657600080fd5b6000613fa485828601613baa565b925050602083013567ffffffffffffffff811115613fc157600080fd5b613fcd85828601613c3d565b9150509250929050565b60008060408385031215613fea57600080fd5b6000613ff885828601613baa565b925050602061400985828601613d99565b9150509250929050565b6000806040838503121561402657600080fd5b600083013567ffffffffffffffff81111561404057600080fd5b61404c85828601613bbf565b925050602061405d85828601613d99565b9150509250929050565b60006020828403121561407957600080fd5b600082013567ffffffffffffffff81111561409357600080fd5b61409f84828501613c13565b91505092915050565b6000602082840312156140ba57600080fd5b600082013567ffffffffffffffff8111156140d457600080fd5b6140e084828501613c3d565b91505092915050565b600080604083850312156140fc57600080fd5b600083013567ffffffffffffffff81111561411657600080fd5b61412285828601613c3d565b925050602083013567ffffffffffffffff81111561413f57600080fd5b61414b85828601613c3d565b9150509250929050565b60006020828403121561416757600080fd5b600061417584828501613c67565b91505092915050565b60006020828403121561419057600080fd5b600061419e84828501613c7c565b91505092915050565b6000602082840312156141b957600080fd5b600082013567ffffffffffffffff8111156141d357600080fd5b6141df84828501613c91565b91505092915050565b6000602082840312156141fa57600080fd5b600061420884828501613d99565b91505092915050565b600061421d8383614241565b60208301905092915050565b600061423583836147eb565b60208301905092915050565b61424a81615099565b82525050565b61425981615099565b82525050565b61427061426b82615099565b6151de565b82525050565b600061428182614f80565b61428b8185614fc6565b935061429683614f60565b8060005b838110156142c75781516142ae8882614211565b97506142b983614fac565b92505060018101905061429a565b5085935050505092915050565b60006142df82614f8b565b6142e98185614fd7565b93506142f483614f70565b8060005b8381101561432557815161430c8882614229565b975061431783614fb9565b9250506001810190506142f8565b5085935050505092915050565b61433b816150ab565b82525050565b61434a816150b7565b82525050565b61436161435c826150b7565b6151f0565b82525050565b600061437282614f96565b61437c8185614fe8565b935061438c818560208601615107565b80840191505092915050565b60006143a382614fa1565b6143ad8185614ff3565b93506143bd818560208601615107565b6143c681615274565b840191505092915050565b60006143de601883614ff3565b91506143e982615292565b602082019050919050565b6000614401601683614ff3565b915061440c826152bb565b602082019050919050565b6000614424601483614ff3565b915061442f826152e4565b602082019050919050565b6000614447601f83614ff3565b91506144528261530d565b602082019050919050565b600061446a601c83615004565b915061447582615336565b601c82019050919050565b600061448d601c83614ff3565b91506144988261535f565b602082019050919050565b60006144b0602683614ff3565b91506144bb82615388565b604082019050919050565b60006144d3601483614ff3565b91506144de826153d7565b602082019050919050565b60006144f6601483614ff3565b915061450182615400565b602082019050919050565b6000614519602283614ff3565b915061452482615429565b604082019050919050565b600061453c602683614ff3565b915061454782615478565b604082019050919050565b600061455f601083614ff3565b915061456a826154c7565b602082019050919050565b6000614582602e83614ff3565b915061458d826154f0565b604082019050919050565b60006145a5600983614ff3565b91506145b08261553f565b602082019050919050565b60006145c8602283614ff3565b91506145d382615568565b604082019050919050565b60006145eb600983614ff3565b91506145f6826155b7565b602082019050919050565b600061460e602083614ff3565b9150614619826155e0565b602082019050919050565b6000614631600d83614ff3565b915061463c82615609565b602082019050919050565b6000614654600e83614ff3565b915061465f82615632565b602082019050919050565b6000614677600e83614ff3565b91506146828261565b565b602082019050919050565b600061469a601083614ff3565b91506146a582615684565b602082019050919050565b60006146bd600083614fe8565b91506146c8826156ad565b600082019050919050565b60006146e0601d83614ff3565b91506146eb826156b0565b602082019050919050565b6000614703600c83614ff3565b915061470e826156d9565b602082019050919050565b6000614726600e83614ff3565b915061473182615702565b602082019050919050565b6000614749602a83614ff3565b91506147548261572b565b604082019050919050565b600061476c601c83614ff3565b91506147778261577a565b602082019050919050565b600061478f600c83614ff3565b915061479a826157a3565b602082019050919050565b60006147b2601f83614ff3565b91506147bd826157cc565b602082019050919050565b60006147d5601d83614ff3565b91506147e0826157f5565b602082019050919050565b6147f4816150e1565b82525050565b614803816150e1565b82525050565b61481a614815826150e1565b61520c565b82525050565b614829816150eb565b82525050565b600061483b828a61425f565b60148201915061484b828961425f565b60148201915061485b828861425f565b60148201915061486b8287614809565b60208201915061487b8286614809565b60208201915061488b8285614809565b60208201915061489b8284614809565b60208201915081905098975050505050505050565b60006148bc8284614367565b915081905092915050565b60006148d28261445d565b91506148de8284614350565b60208201915081905092915050565b60006148f8826146b0565b9150819050919050565b60006020820190506149176000830184614250565b92915050565b600060a0820190506149326000830188614250565b61493f6020830187614250565b61494c6040830186614250565b61495960608301856147fa565b61496660808301846147fa565b9695505050505050565b60006060820190506149856000830186614250565b6149926020830185614250565b61499f60408301846147fa565b949350505050565b60006040820190506149bc6000830185614250565b6149c960208301846147fa565b9392505050565b600060208201905081810360008301526149ea8184614276565b905092915050565b60006020820190508181036000830152614a0c81846142d4565b905092915050565b6000602082019050614a296000830184614332565b92915050565b6000608082019050614a446000830187614341565b614a516020830186614820565b614a5e6040830185614341565b614a6b6060830184614341565b95945050505050565b60006020820190508181036000830152614a8e8184614398565b905092915050565b60006020820190508181036000830152614aaf816143d1565b9050919050565b60006020820190508181036000830152614acf816143f4565b9050919050565b60006020820190508181036000830152614aef81614417565b9050919050565b60006020820190508181036000830152614b0f8161443a565b9050919050565b60006020820190508181036000830152614b2f81614480565b9050919050565b60006020820190508181036000830152614b4f816144a3565b9050919050565b60006020820190508181036000830152614b6f816144c6565b9050919050565b60006020820190508181036000830152614b8f816144e9565b9050919050565b60006020820190508181036000830152614baf8161450c565b9050919050565b60006020820190508181036000830152614bcf8161452f565b9050919050565b60006020820190508181036000830152614bef81614552565b9050919050565b60006020820190508181036000830152614c0f81614575565b9050919050565b60006020820190508181036000830152614c2f81614598565b9050919050565b60006020820190508181036000830152614c4f816145bb565b9050919050565b60006020820190508181036000830152614c6f816145de565b9050919050565b60006020820190508181036000830152614c8f81614601565b9050919050565b60006020820190508181036000830152614caf81614624565b9050919050565b60006020820190508181036000830152614ccf81614647565b9050919050565b60006020820190508181036000830152614cef8161466a565b9050919050565b60006020820190508181036000830152614d0f8161468d565b9050919050565b60006020820190508181036000830152614d2f816146d3565b9050919050565b60006020820190508181036000830152614d4f816146f6565b9050919050565b60006020820190508181036000830152614d6f81614719565b9050919050565b60006020820190508181036000830152614d8f8161473c565b9050919050565b60006020820190508181036000830152614daf8161475f565b9050919050565b60006020820190508181036000830152614dcf81614782565b9050919050565b60006020820190508181036000830152614def816147a5565b9050919050565b60006020820190508181036000830152614e0f816147c8565b9050919050565b6000602082019050614e2b60008301846147fa565b92915050565b6000604082019050614e4660008301856147fa565b614e5360208301846147fa565b9392505050565b6000614e64614e75565b9050614e708282615164565b919050565b6000604051905090565b600067ffffffffffffffff821115614e9a57614e99615245565b5b602082029050602081019050919050565b600067ffffffffffffffff821115614ec657614ec5615245565b5b602082029050602081019050919050565b600067ffffffffffffffff821115614ef257614ef1615245565b5b602082029050602081019050919050565b600067ffffffffffffffff821115614f1e57614f1d615245565b5b602082029050602081019050919050565b600067ffffffffffffffff821115614f4a57614f49615245565b5b614f5382615274565b9050602081019050919050565b6000819050602082019050919050565b6000819050602082019050919050565b600081519050919050565b600081519050919050565b600081519050919050565b600081519050919050565b6000602082019050919050565b6000602082019050919050565b600082825260208201905092915050565b600082825260208201905092915050565b600081905092915050565b600082825260208201905092915050565b600081905092915050565b600061501a826150e1565b9150615025836150e1565b9250827fffffffffffffffffffffffffffffffffffffffffffffffffffffffffffffffff0382111561505a57615059615216565b5b828201905092915050565b6000615070826150e1565b915061507b836150e1565b92508282101561508e5761508d615216565b5b828203905092915050565b60006150a4826150c1565b9050919050565b60008115159050919050565b6000819050919050565b600073ffffffffffffffffffffffffffffffffffffffff82169050919050565b6000819050919050565b600060ff82169050919050565b82818337600083830152505050565b60005b8381101561512557808201518184015260208101905061510a565b83811115615134576000848401525b50505050565b6000615145826150e1565b9150600082141561515957615158615216565b5b600182039050919050565b61516d82615274565b810181811067ffffffffffffffff8211171561518c5761518b615245565b5b80604052505050565b60006151a0826150e1565b91507fffffffffffffffffffffffffffffffffffffffffffffffffffffffffffffffff8214156151d3576151d2615216565b5b600182019050919050565b60006151e9826151fa565b9050919050565b6000819050919050565b600061520582615285565b9050919050565b6000819050919050565b7f4e487b7100000000000000000000000000000000000000000000000000000000600052601160045260246000fd5b7f4e487b7100000000000000000000000000000000000000000000000000000000600052604160045260246000fd5b6000601f19601f8301169050919050565b60008160601b9050919050565b7f45434453413a20696e76616c6964207369676e61747572650000000000000000600082015250565b7f434841494e5f49445f4e4f545f535550504f5254454400000000000000000000600082015250565b7f5061757361626c653a206e6f7420706175736564000000000000000000000000600082015250565b7f45434453413a20696e76616c6964207369676e6174757265206c656e67746800600082015250565b7f19457468657265756d205369676e6564204d6573736167653a0a333200000000600082015250565b7f544f4b454e5f434841494e5f49445f4e4f545f535550504f5254454400000000600082015250565b7f4f776e61626c653a206e6577206f776e657220697320746865207a65726f206160008201527f6464726573730000000000000000000000000000000000000000000000000000602082015250565b7f4152524159535f4c454e4754485f444946464552000000000000000000000000600082015250565b7f4661696c656420746f2073656e64204574686572000000000000000000000000600082015250565b7f45434453413a20696e76616c6964207369676e6174757265202773272076616c60008201527f7565000000000000000000000000000000000000000000000000000000000000602082015250565b7f416464726573733a20696e73756666696369656e742062616c616e636520666f60008201527f722063616c6c0000000000000000000000000000000000000000000000000000602082015250565b7f5061757361626c653a2070617573656400000000000000000000000000000000600082015250565b7f496e697469616c697a61626c653a20636f6e747261637420697320616c72656160008201527f647920696e697469616c697a6564000000000000000000000000000000000000602082015250565b7f57524f4e475f4645450000000000000000000000000000000000000000000000600082015250565b7f45434453413a20696e76616c6964207369676e6174757265202776272076616c60008201527f7565000000000000000000000000000000000000000000000000000000000000602082015250565b7f414444524553535f300000000000000000000000000000000000000000000000600082015250565b7f4f776e61626c653a2063616c6c6572206973206e6f7420746865206f776e6572600082015250565b7f57524f4e475f4144445245535300000000000000000000000000000000000000600082015250565b7f414c52454144595f46494c4c4544000000000000000000000000000000000000600082015250565b7f494e56414c49445f504152414d53000000000000000000000000000000000000600082015250565b7f57524f4e475f5349474e41545552455300000000000000000000000000000000600082015250565b50565b7f416464726573733a2063616c6c20746f206e6f6e2d636f6e7472616374000000600082015250565b7f4e4f5f5645524946494552530000000000000000000000000000000000000000600082015250565b7f57524f4e475f434841494e5f4944000000000000000000000000000000000000600082015250565b7f5361666545524332303a204552433230206f7065726174696f6e20646964206e60008201527f6f74207375636365656400000000000000000000000000000000000000000000602082015250565b7f4465706f736974732068617665206265656e2073757370656e64656400000000600082015250565b7f57524f4e475f5349474e45520000000000000000000000000000000000000000600082015250565b7f5265656e7472616e637947756172643a207265656e7472616e742063616c6c00600082015250565b7f554e535550504f525445445f544f4b454e5f4f4e5f434841494e5f4944000000600082015250565b61582781615099565b811461583257600080fd5b50565b61583e816150ab565b811461584957600080fd5b50565b615855816150e1565b811461586057600080fd5b5056fea26469706673582212207f7c246143850738b15137819347610430384e22484abea7c7f37b6ced31c52864736f6c63430008040033",
  "linkReferences": {},
  "deployedLinkReferences": {}
}